{
  "contractName": "watchdog",
  "abi": [
    {
      "inputs": [],
      "payable": false,
      "stateMutability": "nonpayable",
      "type": "constructor"
    },
    {
      "anonymous": false,
      "inputs": [
        {
          "indexed": false,
          "name": "pushed",
          "type": "string"
        }
      ],
      "name": "newEvent",
      "type": "event"
    },
    {
      "constant": false,
      "inputs": [
        {
          "name": "_event",
          "type": "string"
        }
      ],
      "name": "addEvent",
      "outputs": [
        {
          "name": "",
          "type": "bool"
        }
      ],
      "payable": false,
      "stateMutability": "nonpayable",
      "type": "function"
    }
  ],
  "bytecode": "0x6060604052341561000f57600080fd5b336000806101000a81548173ffffffffffffffffffffffffffffffffffffffff021916908373ffffffffffffffffffffffffffffffffffffffff1602179055506101e58061005e6000396000f300606060405260043610610041576000357c0100000000000000000000000000000000000000000000000000000000900463ffffffff168063feaa339414610046575b600080fd5b341561005157600080fd5b6100a1600480803590602001908201803590602001908080601f016020809104026020016040519081016040528093929190818152602001838380828437820191505050505050919050506100bb565b604051808215151515815260200191505060405180910390f35b60008060009054906101000a900473ffffffffffffffffffffffffffffffffffffffff1673ffffffffffffffffffffffffffffffffffffffff163373ffffffffffffffffffffffffffffffffffffffff1614151561011857600080fd5b7fc740355753619a7b950bd07f05ac9b5c4ea63a3f51e4b6c08fd4a114b1338c67826040518080602001828103825283818151815260200191508051906020019080838360005b8381101561017a57808201518184015260208101905061015f565b50505050905090810190601f1680156101a75780820380516001836020036101000a031916815260200191505b509250505060405180910390a19190505600a165627a7a72305820f74bef194215b765ee2d4e7c44180d908b43e87ff825415e38c075369ba5f2c20029",
  "source": "pragma solidity =0.4.20;\r\n\r\ncontract watchdog{\r\n\r\n    address owner;\r\n\r\n    event newEvent(string pushed);\r\n\r\n    modifier onlyOwner(){\r\n        require(msg.sender == owner);\r\n        _;\r\n    }\r\n\r\n    function watchdog(){\r\n        owner = msg.sender;\r\n    }\r\n\r\n    function addEvent(string _event)\r\n        public\r\n        onlyOwner\r\n        returns(bool){\r\n            newEvent(_event);\r\n        }\r\n\r\n}\r\n",
  "sourcePath": "C:\\Users\\cody.burns\\Documents\\github\\ETC-public-Works\\contracts\\contracts\\watchdog.sol",
  "compiler": {
    "name": "solc",
    "version": "0.4.20+commit.3155dd80.Emscripten.clang"
  },
  "schemaVersion": "2.0.1",
  "updatedAt": "2018-11-30T20:02:28.869Z"
}